:100000000C9474000C949C000C949C000C949C0028
:100010000C949C000C949C000C949C000C949C00F0
:100020000C949C000C949C000C949C000C949C00E0
:100030000C949C000C949C000C949C000C949C00D0
:100040000C94E4020C949C000C941F020C94F90193
:100050000C949C000C949C000C949C000C949C00B0
:100060000C949C000C949C00BB0684060607880632
:100070008B068E069206950699069C069F06A2069A
:10008000A506A906AD06B106B406B7060000000035
:10009000250028002B0000000000240027002A0073
:1000A00000000000230026002900040404040404C6
:1000B0000404020202020202030303030303010217
:1000C00004081020408001020408102001020408E6
:1000D00010200000000800020100000304070000D7
:1000E0000000000000007B0E11241FBECFEFD8E0FF
:1000F000DEBFCDBF12E0A0E0B1E0E2E5FEE102C06C
:1001000005900D92A632B107D9F723E0A6E2B2E03E
:1001100001C01D92A631B207E1F710E0C4E7D0E0BC
:1001200004C02197FE010E941C0FC337D107C9F7F5
:100130000E94B8080C94270F0C940000CF92DF9215
:10014000EF92FF920F931F93CF93DF936C017A018D
:100150008B01C0E0D0E0CE15DF0589F0D8016D91AC
:100160008D01D601ED91FC910190F081E02DC60149
:100170000995892B11F47E0102C02196ECCFC701AD
:10018000DF91CF911F910F91FF90EF90DF90CF9073
:100190000895FC01918D828D981761F0828DDF01A9
:1001A000A80FB11D5D968C91928D9F5F9F73928F6A
:1001B00090E008958FEF9FEF0895FC01918D828D5F
:1001C000981731F0828DE80FF11D858D90E008952C
:1001D0008FEF9FEF0895FC01918D228D892F90E084
:1001E000805C9F4F821B91098F739927089587E642
:1001F00092E00E94EB0021E0892B09F420E0822F9D
:100200000895FC01848DDF01A80FB11DA35ABF4FD3
:100210002C91848D90E001968F739927848FA68905
:10022000B7892C93A089B1898C9180648C93938D2C
:10023000848D981306C00288F389E02D80818F7D1C
:1002400080830895EF92FF920F931F93CF93DF93D4
:10025000EC0181E0888F9B8D8C8D981305C0E88917
:10026000F989808185FD24C0F62E0B8D10E00F5F8B
:100270001F4F0F731127E02E8C8DE8120CC00FB6A4
:1002800007FCFACFE889F989808185FFF5CFCE0197
:100290000E940101F1CF8B8DFE01E80FF11DE35AA1
:1002A000FF4FF0820B8FEA89FB898081806207C053
:1002B000EE89FF896083E889F98980818064808381
:1002C00081E090E0DF91CF911F910F91FF90EF902F
:1002D0000895CF93DF93EC01888D8823C9F0EA89D4
:1002E000FB89808185FD05C0A889B9898C9186FD2F
:1002F0000FC00FB607FCF5CF808185FFF2CFA8892C
:10030000B9898C9185FFEDCFCE010E940101E7CF25
:10031000DF91CF91089580E090E0892B29F00E9431
:10032000F70081110C94000008953FB7F894809174
:100330002B0290912C02A0912D02B0912E0226B595
:10034000A89B05C02F3F19F00196A11DB11D3FBF0D
:10035000BA2FA92F982F8827820F911DA11DB11D9B
:10036000BC01CD0142E0660F771F881F991F4A9597
:10037000D1F708952FB7F894609127027091280261
:100380008091290290912A022FBF08950C94EC0EBF
:100390000C94E40ECF92DF92EF92FF920F931F9393
:1003A000CF93DF93EC0100E010E060E070E0CB0160
:1003B000CC24D62EE72EF82EC8018C0F9D1F0E944C
:1003C000E40EA7019601280F311D411D511DCA01E0
:1003D000B9010F5F1F4F0430110551F7DF91CF9125
:1003E0001F910F91FF90EF90DF90CF9008950E94A2
:1003F000220F1F920F920FB60F9211242F933F934B
:100400004F935F936F937F938F939F93AF93BF931C
:10041000EF93FF9387E692E00E940101FF91EF9135
:10042000BF91AF919F918F917F916F915F914F910C
:100430003F912F910F900FBE0F901F9018951F9214
:100440000F920FB60F9211242F938F939F93EF93D8
:10045000FF93E0917702F09178028081E0917D0234
:10046000F0917E0282FD12C09081809180028F5FA8
:100470008F7320918102821751F0E0918002F0E0A9
:10048000E959FD4F958F8093800201C08081FF91D3
:10049000EF919F918F912F910F900FBE0F901F9012
:1004A0001895833081F028F4813099F08230A1F0E2
:1004B00008958730A9F08830B9F08430D1F4809164
:1004C00080008F7D03C0809180008F7780938000B3
:1004D000089584B58F7702C084B58F7D84BD08955B
:1004E0008091B0008F7703C08091B0008F7D8093A2
:1004F000B00008951F93CF93DF93282F30E0F901C8
:10050000EE52FF4F8491F901E254FF4FD491F9016B
:10051000E655FF4FC491CC23C9F0162F81110E94DC
:100520005102EC2FF0E0EE0FFF1FE457FF4FA591B3
:10053000B4918FB7F894111105C09C91ED2FE095FF
:10054000E92302C0EC91ED2BEC938FBFDF91CF91AB
:100550001F9108958F929F92AF92BF92CF92DF9298
:10056000EF92FF926B017C010E9495014B015C01AF
:10057000C114D104E104F104F1F00E949501DC0101
:10058000CB0188199909AA09BB09883E9340A105A6
:10059000B10570F321E0C21AD108E108F10888EE34
:1005A000880E83E0981EA11CB11CC114D104E10483
:1005B000F10419F7DDCFFF90EF90DF90CF90BF905F
:1005C000AF909F908F9008951F920F920FB60F9249
:1005D00011242F933F938F939F93AF93BF93809159
:1005E000270290912802A0912902B0912A0230910D
:1005F000260223E0230F2D3720F40196A11DB11D03
:1006000005C026E8230F0296A11DB11D20932602E6
:100610008093270290932802A0932902B0932A0284
:1006200080912B0290912C02A0912D02B0912E026C
:100630000196A11DB11D80932B0290932C02A093D3
:100640002D02B0932E02BF91AF919F918F913F9158
:100650002F910F900FBE0F901F90189508958EBD8B
:1006600000000DB407FEFDCF8EB508958CBD9DBD75
:100670000895009769F0FC0101900020E9F7319797
:10068000AF01481B590BBC0187E692E00C949E0019
:1006900080E090E00895CF93DF930E943903EC014E
:1006A00082E292E00E9439038C0F9D1FDF91CF916F
:1006B00008958F929F92AF92BF920F931F93CF9303
:1006C000DF93CDB7DEB7A1970FB6F894DEBF0FBEAC
:1006D000CDBF19A2423008F44AE08E010F5D1F4FD2
:1006E000842E912CA12CB12CA50194010E94FA0E0C
:1006F000E62FB901CA0101501109EA3014F4E05D96
:1007000001C0E95CD801EC93232B242B252B61F746
:10071000C8010E943903A1960FB6F894DEBF0FBE40
:10072000CDBFDF91CF911F910F91BF90AF909F9060
:100730008F9008950C943903CF93DF9340E10E948A
:100740005903EC0182E292E00E9439038C0F9D1F55
:10075000DF91CF910895CF93DF93E5EDF0E08491A1
:10076000E1ECF0E0D491EDEAF0E0C491CC2391F01B
:1007700081110E945102EC2FF0E0EE0FFF1FE056B6
:10078000FF4FA591B491EC91ED2381E090E021F42D
:1007900080E002C080E090E0DF91CF910895CF9299
:1007A000DF92EF92FF926B017C01E0917702F09172
:1007B000780282E08083C11481EED806E104F1045E
:1007C000B1F060E079E08DE390E0A70196010E942E
:1007D000FA0EDA01C9010197A109B109B695A795E9
:1007E000979587959C01211580E13807B8F0E09135
:1007F0007702F0917802108260E874E88EE190E070
:10080000A70196010E94FA0EDA01C9010197A10918
:10081000B109B695A795979587959C01E0917302CC
:10082000F09174023083E0917502F091760220839A
:1008300010927F02E0917B02F0917C0286E080833F
:10084000E0917902F0917A02808180618083E09169
:100850007902F0917A02808188608083E091790248
:10086000F0917A02808180688083E0917902F09132
:100870007A0280818F7D8083FF90EF90DF90CF9010
:1008800008951F93CF93DF93182F80E591E00E9486
:100890003603C4E0D3E060E088890E947A0283E0F6
:1008A0000E942F03812F0E942F0380E00E942F03BC
:1008B000182F61E088890E947A020E942E03812FFE
:1008C000DF91CF911F910895EF92FF920F931F93A5
:1008D000CF93DF931F92CDB7DEB7082F162F80E599
:1008E00091E049830E94360384E0E82E83E0F82EED
:1008F00060E0F70180890E947A0285E00E942F0360
:10090000802F0E942F03812F0E942F034981842F63
:100910000E942F0361E0F70180890E947A020F9004
:10092000DF91CF911F910F91FF90EF900C942E03C8
:10093000CF93C82F482F60EE8FE00E9464048FE0B1
:100940000E944104807E91E08C1301C090E0892FC9
:10095000CF910895CF92DF92FF920F931F93CF9381
:10096000DF931F92CDB7DEB7F82E162F042F80E548
:1009700091E079830E94360360E0809114030E9425
:100980007A0282E00E942F038F2D0E942F03F12E06
:10099000C12E7981D72E8C2D8F19801730F4F60156
:1009A00081916F010E942F03F6CF61E080911403C3
:1009B0000E947A020F90DF91CF911F910F91FF90CB
:1009C000DF90CF900C942E030F931F93CF93DF9360
:1009D00000D000D0CDB7DEB76130B9F42C833B83B3
:1009E0008A0122273327602F6C71902F937048E083
:1009F000649F900D112498609A83980175E0369554
:100A000027957A95E1F729830DC0B90193E0769592
:100A100067959A95E1F769832295220F207E2A83B4
:100A20001C821B8244E0BE016F5F7F4F0E94AA04BC
:100A30000F900F900F900F90DF91CF911F910F911A
:100A40000895FF920F931F93CF93DF9300D000D0B0
:100A5000CDB7DEB7F82E162F6AE070E080E090E0A8
:100A600029833A834B835C830E94AA0280E80E9418
:100A70009804082F29813A814B815C81882341F0B9
:100A80006AE070E080E090E00E94AA02802F36C009
:100A900082E0F816C1F08F1540F0FF2089F081E068
:100AA000F8121BC0612F84E016C084E0F81689F0AC
:100AB000F81660F085E0F81210C0612F88E10BC0D5
:100AC000612F80E008C0612F88E005C0612F80E1C0
:100AD00002C0612F84E10E94E40480E00E94980437
:100AE000182F6AE070E080E090E0112321F00E946E
:100AF000AA02812F03C00E94AA0280E00F900F90EB
:100B00000F900F90DF91CF911F910F91FF9008955B
:100B1000FF920F931F93CF93DF9300D000D0CDB7F8
:100B2000DEB7182FF62E6AE070E080E090E02983AF
:100B30003A834B835C830E94AA0280E80E94980457
:100B4000082F29813A814B815C81882341F06AE03A
:100B500070E080E090E00E94AA02802F1CC011117A
:100B600003C06F2D80E204C0113021F46F2D84E2A8
:100B70000E94E40480E00E949804182F6AE070E06C
:100B800080E090E0112321F00E94AA02812F03C08F
:100B90000E94AA0280E00F900F900F900F90DF91BB
:100BA000CF911F910F91FF9008950F931F93CF93B3
:100BB000DF93082F162F80E591E00E943603C4E0F2
:100BC000D3E060E088890E947A0282E00E942F03CD
:100BD000802F0E942F03812F0E942F0361E08889BC
:100BE0000E947A02DF91CF911F910F910C942E03F6
:100BF00090E0FC01E254FF4F2491FC01E655FF4FC9
:100C00008491882399F090E0880F991FFC01EA569F
:100C1000FF4FA591B491FC01E457FF4F859194914A
:100C20008FB7F894EC91E22BEC938FBF0895CF939C
:100C3000DF93C82F809114030E94F80561E0809132
:100C400014030E947A02DFB7F89480911503811192
:100C500024C0E4EBF0E02491E8ECF0E0849130E093
:100C6000220F331F2A563F4FF901A591B491EC9101
:100C7000E82321F461E08AE00E947A028AE00E947F
:100C8000F8058CB580618CBD8CB580648CBD8DE021
:100C90000E94F8058BE00E94F805809115038F5F94
:100CA00080931503DFBF80E591E00E94360360E08A
:100CB000809114030E947A0280EC0E942F0361E06D
:100CC000809114030E947A020E942E036AE070E071
:100CD00080E090E00E94AA0280E80E949804D82F49
:100CE0006AE070E080E090E0D11189C00E94AA0221
:100CF0004C2F50E0FA013197E231F10508F07BC04A
:100D0000EC5CFF4F0C941C0FC7E8DFEF6FE136C0BF
:100D1000C7E0DAEB7DC0C5E8D1EF7AC0C7E0DEEB13
:100D200069E02CC0C7E8DFEF02C0C7E8DAEF67E090
:100D300025C0C7E8DFEF0BC0C7E0DEEB08C0C7E0A7
:100D4000DDEA05C0C7E8DAEF02C0C6E8D0EF63E02D
:100D500015C0C7E8DAEF61E011C0C5E8D1EF61E482
:100D60000DC0C6E8D0EF05C0C4E0D0EA02C0C2E8BA
:100D7000D0ED60E003C0C7E8DFEF6FE38AE20E94D6
:100D8000D5056D2F89E20E94D5056C2F88E20E945F
:100D9000D5056AE070E080E090E00E94AA02C0E31E
:100DA00060E08C2F0E94D50560E080E18C0F0E94EE
:100DB000D50560E080E28C0F0E94D505CF5FCE3371
:100DC00079F760E080E60E94D50560E080E70E9448
:100DD000D50563E08BE20E94D50544E064E680E639
:100DE0000E94640440E060E680E70E94640480E0C2
:100DF0000E949804D82F6AE070E080E090E00E94A2
:100E0000AA0281E0D11106C080E004C0C7E8DFEF8C
:100E10006FE0B4CFDF91CF9108951F93CF93DF930D
:100E200080E591E00E943603C4E0D3E060E0888969
:100E30000E947A0280EA0E942F0380E00E942F0322
:100E4000182F61E088890E947A020E942E03812F68
:100E5000DF91CF911F910895EF92FF920F931F930F
:100E6000CF93DF931F92CDB7DEB7182FF62EE42E67
:100E700080E591E079830E94360360E0809114035D
:100E80000E947A0283E00E942F03812F0E942F0389
:100E90000F2D7981172FF12CFE1459F0F8E0FF1671
:100EA00041F080E00E942F03F80181938F01F394B9
:100EB000F3CF61E0809114030E947A020F90DF91DA
:100EC000CF911F910F91FF90EF900C942E030F93F1
:100ED0001F93CF93DF9300D000D0CDB7DEB7182F8C
:100EE0001092040310920503109206031092070358
:100EF0001092080344E0BE016F5F7F4F0E942C07F1
:100F00008A819981482F50E065E0559547956A950B
:100F1000E1F728E0929F400D511D1124052E000C91
:100F2000660B770B4093050350930603609307030A
:100F30007093080383FF29C092E0440F551F661F7A
:100F4000771F9A95D1F78370480F511D611D711D50
:100F5000762F652F542F44278B81480F511D611D1B
:100F6000711D762F652F542F44278C81480F511DFA
:100F7000611D711D409305035093060360930703A1
:100F80007093080381E0809304038FEF810F0E9428
:100F90004104082F84E0810F0E94410403FB0027D5
:100FA00000F900931203482F4F70409309036AE041
:100FB00073E085E0810F0E942C070F900F900F9037
:100FC0000F90DF91CF911F910F9108950F931F9371
:100FD000CF93DF93EC018B010E940D0780FF06C0C9
:100FE00081E60E94670740E061E007C081FF1CC006
:100FF00081E70E94670740E062E08CE20E9464049F
:10100000809109038883AAE0B3E0F8018091090385
:1010100090E09F01201B310B281739071CF48D919C
:101020008193F4CF80E002C0188284E0DF91CF91F9
:101030001F910F91089587E692E00C9422015F9230
:101040006F927F928F929F92AF92BF92CF92DF92D8
:10105000EF92FF920F931F93CF93DF9300D01F92D5
:10106000CDB7DEB74C01E12CF12C00E380E4782E03
:1010700090E5692ECE0101965C0123E0522E580EB8
:1010800009837A826B826501F60111916F01812FCC
:101090000E944104982F987083FD02C01F5F04C016
:1010A0005C10F2CF10E092E0FFEFEF1AFF0A9230EF
:1010B00029F482E3E816F10419F742C092E3E91635
:1010C000F104F1F1409109036AE073E085E0810FDA
:1010D0000E94AA048A94892829F4809109038064D3
:1010E000809309036091090384E0810F0E94D50574
:1010F00020910503309106034091070350910803A6
:1011000060910403812F0E94E404115048E068E0DC
:10111000812F0E946404E12CF12CFFEFEF1AFF0AEB
:10112000812F0E94410483FF05C082E3E816F10489
:10113000A1F708C092E3E916F10421F080E003C0B2
:1011400086E001C087E00F900F900F90DF91CF9164
:101150001F910F91FF90EF90DF90CF90BF90AF90D5
:101160009F908F907F906F905F9008950C94E40E05
:10117000CF93DF93CDB7DEB7AB970FB6F894DEBF52
:101180000FBECDBF789484B5826084BD84B5816084
:1011900084BD85B5826085BD85B5816085BD809142
:1011A0006E00816080936E001092810080918100BA
:1011B00082608093810080918100816080938100B2
:1011C000809180008160809380008091B100846074
:1011D0008093B1008091B00081608093B0008091D5
:1011E0007A00846080937A0080917A008260809394
:1011F0007A0080917A00816080937A0080917A00F1
:10120000806880937A001092C10083E00E94F80504
:1012100080E090E00E94E40E853599F481E090E052
:101220000E94C80124E0829FC0011124FC01E95DF5
:10123000FE4F60817181828193810E94CF0311E012
:101240001BC065E580E090E00E94C60160E081E09F
:1012500090E00E94C60160E182E090E00E94C60139
:101260000AE010E060E0C8010E94C6010F5F1F4F56
:101270000A351105B9F7D2CF82E090E00E94C8018B
:101280000E941706882391F08BE491E00E944B03A3
:1012900064E670E080E090E00E94AA020E94AB0346
:1012A000612F681B83E00E947A02E6CF8BE090E01A
:1012B0000E94CA019B01AC018AE090E028A739A7EF
:1012C0004AA75BA70E94C80128A539A54AA55BA526
:1012D000682F80E00E94880585E190E00E94CA01A5
:1012E0009B01AC0184E190E028A739A74AA75BA73E
:1012F0000E94C80128A539A54AA55BA5682F81E0F1
:101300000E9488058FE190E00E94CA019B01AC0118
:101310008EE190E028A739A74AA75BA70E94C801E1
:1013200028A539A54AA55BA5682F80E00E94210564
:1013300089E290E00E94CA019B01AC0188E290E042
:1013400028A739A74AA75BA70E94C80128A539A5E5
:101350004AA55BA5682F81E00E94210583E390E008
:101360000E94CA019B01AC0182E390E028A739A743
:101370004AA75BA70E94C80128A539A54AA55BA575
:10138000682F82E00E9421058DE390E00E94CA014F
:101390009B01AC018CE390E028A739A74AA75BA783
:1013A0000E94C80128A539A54AA55BA5682F83E03E
:1013B0000E94210587E490E00E94CA019B01AC01D4
:1013C00086E490E028A739A74AA75BA70E94C80136
:1013D00028A539A54AA55BA5682F84E00E942105B0
:1013E00081E590E00E94CA019B01AC0180E590E09C
:1013F00028A739A74AA75BA70E94C80128A539A535
:101400004AA55BA5682F85E00E94210586E2E1E000
:10141000F1E0DE01119601900D928A95E1F785E5E4
:1014200091E00E949A0382E090E00E94E40EFE01A7
:101430003196E80FF11DE80FF11D6081718180E0A8
:1014400090E04AE00E9459038CE591E00E944B0332
:1014500082E691E00E949A038BE090E00E94CA012C
:101460000E949C038CE691E00E949A0385E190E043
:101470000E94CA010E949C0386E791E00E949A03A1
:101480008FE190E00E94CA010E949C0380E891E0F5
:101490000E949A0389E290E00E94CA010E949C0384
:1014A0008AE891E00E949A0383E390E00E94CA01D7
:1014B0000E949C0384E991E00E949A038DE390E0EE
:1014C0000E94CA010E949C038EE991E00E949A0347
:1014D00087E490E00E94CA010E949C0388EA91E0A0
:1014E0000E949A0381E590E00E94CA010E949C0339
:1014F00082EB91E00E944B0361E083E00E947A025C
:1015000083E690E00E94C8018A3509F48EC06AE53E
:1015100083E690E00E94EC0E1FA28AEB91E00E940D
:101520004B038E01075F1F4FEE24E39478E0F72E04
:10153000DD24D3940E940D07837079F1BE016F5FA3
:101540007F4FCE0187960E94E6078090050390901A
:101550000603A0900703B090080361E070E080E00C
:1015600090E00E94AA02A8951092040380920503BD
:1015700090920603A0920703B0920803F092090329
:10158000FE013196AAE0B3E081918D93E017F10757
:10159000D9F780E090E00E941F0887E692E00E9461
:1015A000EB00892B51F087E692E00E94C900682F7A
:1015B00087E692E00E942201F0CF809133028111F0
:1015C0000CC00E94BA0160932F0270933002809386
:1015D000310290933202D09233020E94BA0180907D
:1015E0002F0290903002A0903102B0903202DC01C4
:1015F000CB0188199909AA09BB0984369105A1056F
:10160000B10508F497CF0E94BA0160932F0270933E
:10161000300280933102909332020E94AB036E2D10
:10162000681B83E00E947A0285CF9EE088E10FB6B6
:10163000F894A89580936000909360000FBEFF24FB
:10164000F3946AE0E62E5E0189E0A80EB11C809159
:101650003F0281112EC00E94BA0160933B02709339
:101660003C0280933D0290933E02F0923F0221C0E3
:1016700001E0010F0093660287E692E00E94C90034
:10168000E12FF0E0E85BFD4F8083E02FF0E0E95BC5
:10169000FD4F80818A3011F4F09247020E94BA0116
:1016A00060933B0270933C0280933D0290933E0214
:1016B000A89587E692E00E94EB0010916602892BC4
:1016C000B9F6133001F5809148028B32E1F4809134
:1016D00049028B32C1F480914A028B32A1F48AEC28
:1016E00091E00E944B031092000187E692E00E9475
:1016F000EB00892B31F087E692E00E94C900A895A3
:10170000F4CF10926602809166028823A9F00E94AD
:10171000BA0100913B0210913C0220913D023091B0
:101720003E02DC01CB01801B910BA20BB30B0B978C
:10173000A105B10508F0DAC2A895809100018111D8
:101740004EC280914702882309F449C21092470291
:1017500060E083E00E947A026AE070E080E090E05E
:101760000E94AA02A895209166029DEF920F809197
:101770004802923068F4813459F4809149028435EA
:1017800051F41092660287EB91E00E944B030BC26A
:10179000813409F00DC280914902843509F008C2F4
:1017A00080914A028B3209F003C280914B028D3442
:1017B00009F456C030F4833441F1863409F4F3C09F
:1017C000F7C1813509F4E1C1833509F0F1C1809198
:1017D0004D028053853008F0EBC187EB91E00E9409
:1017E0004B03E0914D0294E0E99FF0011124E95987
:1017F000FF4F60817181828193810E94CF0360914C
:101800004D02605381E090E028C080914D0290ED40
:10181000980F9A3008F0CCC120914E0290ED920FB3
:101820009A3008F0C5C190E0C097E89E8001E99E1B
:10183000100D1124020F111D00531109802F0E9459
:101840001706811103C087EB91E002C080E591E0AB
:101850000E944B03602F82E090E00E94EC0EA1C139
:1018600080914E0290ED980F923008F0A1C1009146
:10187000510290ED900F923008F09AC1C82ED12CF1
:101880004601E0E38E1A910810E00053110925315A
:1018900008F48EC180915C028D3509F089C1E4E5C0
:1018A000F2E0412C512C320154E0440C551C661CD2
:1018B000771C5A95D1F7819190ED980F9A3018F4D2
:1018C00090E0C09707C09FEB980F963008F070C16A
:1018D00090E0C797092E000CAA0BBB0B480E591EAF
:1018E0006A1E7B1E22E0EC35F207F1F682EE91E0F3
:1018F0000E949A03C4010E94B60E89E00E94AB0EBA
:10190000C8010E94B60E89E00E94AB0EC301B2016D
:101910000E949C038FE2C81AD108EC9C4001ED9C08
:10192000900C1124602FC4010E94EC0E84010C5F06
:101930001F4F642DC8010E94C601452C562C672CF0
:101940007724015011090815190599F78BE090E0EB
:101950000E94CA019B01AC018AE090E028A739A748
:101960004AA75BA70E94B60828A539A54AA55BA58A
:10197000682F80E00E94880585E190E00E94CA01FE
:101980009B01AC0184E190E028A739A74AA75BA797
:101990000E94B60828A539A54AA55BA5682F81E055
:1019A0000E948805EDC080914E0290ED980F963010
:1019B00008F0FEC06091510290ED960F923008F051
:1019C000F7C090E0C09770E060537109253108F4CA
:1019D000EFC020915C022D3509F0EAC0E4E5F2E0A9
:1019E000412C512C320134E0440C551C661C771CF0
:1019F0003A95D1F7019120ED200F2A3020F410E024
:101A00000053110908C02FEB200F263008F0D0C07A
:101A100010E007531109012E000C220B330B400E6E
:101A2000511E621E731E22E0EC35F207E1F6120130
:101A30004301E89E8001E99E100D112468018EE1AA
:101A4000C80ED11CC6010E94EC0E0E5D1F4F642D06
:101A5000C8010E94C601452C562C672C77240150E2
:101A600011090C151D0599F78FE190E00E94CA013C
:101A70009B01AC018EE190E028A739A74AA75BA79C
:101A80000E94B60828A539A54AA55BA5682F80E065
:101A90000E94210589E290E00E94CA019B01AC01ED
:101AA00088E290E028A739A74AA75BA70E94B6085A
:101AB00028A539A54AA55BA5682F81E00E942105CC
:101AC00083E390E00E94CA019B01AC0182E390E0B5
:101AD00028A739A74AA75BA70E94B60828A539A559
:101AE0004AA55BA5682F82E00E9421058DE390E066
:101AF0000E94CA019B01AC018CE390E028A739A7A2
:101B00004AA75BA70E94B60828A539A54AA55BA5E8
:101B1000682F83E00E94210587E490E00E94CA01BB
:101B20009B01AC0186E490E028A739A74AA75BA7F0
:101B30000E94B60828A539A54AA55BA5682F84E0B0
:101B40000E94210581E590E00E94CA019B01AC0141
:101B500080E590E028A739A74AA75BA70E94B608AE
:101B600028A539A54AA55BA5682F85E00E94210517
:101B700085EF91E00E949A03B101C4010E949C0389
:101B80001092660287EB91E00AC010926602F09212
:101B9000000187EB91E00E944B0388E092E00E94F5
:101BA0004B031092660261E083E00E947A0217C044
:101BB00088E192E00E944B0308E412E08091660203
:101BC00090E09801285432402817390754F7F8015B
:101BD00061918F0187E692E00E942201EFCFA895E4
:101BE00010910001113009F040C0809166028E30E2
:101BF000E1F5E8E4F2E040E050E0BA01762F652F2D
:101C0000542F44278191480F511D611D711D22E001
:101C1000EC34F20799F790914C02923030F58091B4
:101C20004D02823010F590930403409305035093C6
:101C30000603609307037093080398E090930903E9
:101C400020E030E0F901EC5FFC4FD901A85BBD4F0B
:101C500016969C9196832F5F3F4F2830310591F760
:101C600090E00E941F0810926602A8951130D1F5ED
:101C70001FA20E940D078370A9F1BE016F5F7F4F05
:101C8000CE0187960E94E607409005035090060318
:101C90006090070370900803672D7727882799279E
:101CA0000E941B08662D70E080E090E00E941B08F7
:101CB000652D70E080E090E00E941B08C301B20136
:101CC0007727882799270E941B088E010F5F1F4FD7
:101CD000F80161918F0187E692E00E9422010A15C6
:101CE0001B05B1F7A8950E948B01B1CC109266023A
:101CF0001092470221CDE7E6F2E01382128288EECD
:101D000093E0A0E0B0E084839583A683B7838FE35C
:101D100091E09183808385EC90E09587848784ECC3
:101D200090E09787868780EC90E0918B808B81ECA8
:101D300090E0938B828B82EC90E0958B848B86EC89
:101D400090E0978B868B118E128E138E148E89E005
:101D5000809314030895E0916702F0916802019066
:101D6000F081E02D682F87E692E00994CF92DF9210
:101D7000EF92FF92CF93DF936C01990FEE08FF086B
:101D8000F7FE17C08DE20E94AB0EEC0166277727A5
:101D9000CB016C197D098E099F094AE00E94590305
:101DA0008C0F9D1FDF91CF91FF90EF90DF90CF9030
:101DB00008954AE0C701B601DF91CF91FF90EF90FF
:101DC000DF90CF900C945903F999FECF92BD81BD5D
:101DD000F89A992780B50895262FF999FECF1FBA52
:101DE00092BD81BD20BD0FB6F894FA9AF99A0FBE44
:101DF00001960895A1E21A2EAA1BBB1BFD010DC07E
:101E0000AA1FBB1FEE1FFF1FA217B307E407F507AA
:101E100020F0A21BB30BE40BF50B661F771F881F86
:101E2000991F1A9469F760957095809590959B011C
:101E3000AC01BD01CF010895EE0FFF1F0590F49195
:101E4000E02D099481E090E0F8940C94270FF89429
:021E5000FFCFC2
:101E520001000005000A00140019001F00210028DB
:101E6200003200500053005F0064007D00C800FA99
:101E720000F4019A02E80380250000004B000000F4
:101E820096000000E1000000C201000000000022F4
:101E9200019E00EB00C900DD006901494E49542052
:101EA2004641494C00526174653A2000204D622F30
:101EB20073004D61736B303A203078004D61736B63
:101EC200313A2030780046696C74303A203078001C
:101ED20046696C74313A2030780046696C74323A43
:101EE2002030780046696C74333A203078004669B5
:101EF2006C74343A2030780046696C74353A20307C
:101F02007800494E4954204F4B00454E54455220CB
:101F120054455354204D4F444500454E544552209C
:101F2200494E544F2053455454494E47204D4F4437
:101F32004500636D643A20736574206D61736B2094
:101F42002D20307800636D643A20736574206669D1
:101F52006C74202D20307800454E54455220444167
:101F62005441204D4F4445004552524F5220434D5B
:061F720044000D0A00000E
:107E0000112484B714BE81FFF0D085E080938100F7
:107E100082E08093C00088E18093C10086E0809377
:107E2000C20080E18093C4008EE0C9D0259A86E02C
:107E300020E33CEF91E0309385002093840096BBD3
:107E4000B09BFECF1D9AA8958150A9F7CC24DD24C4
:107E500088248394B5E0AB2EA1E19A2EF3E0BF2EE7
:107E6000A2D0813461F49FD0082FAFD0023811F036
:107E7000013811F484E001C083E08DD089C08234E0
:107E800011F484E103C0853419F485E0A6D080C0E4
:107E9000853579F488D0E82EFF2485D0082F10E0AE
:107EA000102F00270E291F29000F111F8ED06801E7
:107EB0006FC0863521F484E090D080E0DECF843638
:107EC00009F040C070D06FD0082F6DD080E0C81688
:107ED00080E7D80618F4F601B7BEE895C0E0D1E017
:107EE00062D089930C17E1F7F0E0CF16F0E7DF06D8
:107EF00018F0F601B7BEE89568D007B600FCFDCFD4
:107F0000A601A0E0B1E02C9130E011968C91119780
:107F100090E0982F8827822B932B1296FA010C0160
:107F200087BEE89511244E5F5F4FF1E0A038BF0790
:107F300051F7F601A7BEE89507B600FCFDCF97BE46
:107F4000E89526C08437B1F42ED02DD0F82E2BD052
:107F50003CD0F601EF2C8F010F5F1F4F84911BD097
:107F6000EA94F801C1F70894C11CD11CFA94CF0C13
:107F7000D11C0EC0853739F428D08EE10CD085E9AC
:107F80000AD08FE07ACF813511F488E018D01DD067
:107F900080E101D065CF982F8091C00085FFFCCF94
:107FA0009093C60008958091C00087FFFCCF809118
:107FB000C00084FD01C0A8958091C6000895E0E648
:107FC000F0E098E1908380830895EDDF803219F02E
:107FD00088E0F5DFFFCF84E1DECF1F93182FE3DFCA
:107FE0001150E9F7F2DF1F91089580E0E8DFEE27F6
:047FF000FF270994CA
:027FFE00040479
:0400000300007E007B
:00000001FF
